{
  "contractName": "DAIM",
  "abi": [
    {
      "inputs": [],
      "stateMutability": "nonpayable",
      "type": "constructor"
    },
    {
      "anonymous": false,
      "inputs": [
        {
          "indexed": true,
          "internalType": "address",
          "name": "owner",
          "type": "address"
        },
        {
          "indexed": true,
          "internalType": "address",
          "name": "approved",
          "type": "address"
        },
        {
          "indexed": true,
          "internalType": "uint256",
          "name": "tokenId",
          "type": "uint256"
        }
      ],
      "name": "Approval",
      "type": "event"
    },
    {
      "anonymous": false,
      "inputs": [
        {
          "indexed": true,
          "internalType": "address",
          "name": "owner",
          "type": "address"
        },
        {
          "indexed": true,
          "internalType": "address",
          "name": "operator",
          "type": "address"
        },
        {
          "indexed": false,
          "internalType": "bool",
          "name": "approved",
          "type": "bool"
        }
      ],
      "name": "ApprovalForAll",
      "type": "event"
    },
    {
      "anonymous": false,
      "inputs": [
        {
          "indexed": true,
          "internalType": "address",
          "name": "previousOwner",
          "type": "address"
        },
        {
          "indexed": true,
          "internalType": "address",
          "name": "newOwner",
          "type": "address"
        }
      ],
      "name": "OwnershipTransferred",
      "type": "event"
    },
    {
      "anonymous": false,
      "inputs": [
        {
          "indexed": true,
          "internalType": "address",
          "name": "from",
          "type": "address"
        },
        {
          "indexed": true,
          "internalType": "address",
          "name": "to",
          "type": "address"
        },
        {
          "indexed": true,
          "internalType": "uint256",
          "name": "tokenId",
          "type": "uint256"
        }
      ],
      "name": "Transfer",
      "type": "event"
    },
    {
      "inputs": [],
      "name": "admin",
      "outputs": [
        {
          "internalType": "address",
          "name": "",
          "type": "address"
        }
      ],
      "stateMutability": "view",
      "type": "function",
      "constant": true
    },
    {
      "inputs": [
        {
          "internalType": "address",
          "name": "to",
          "type": "address"
        },
        {
          "internalType": "uint256",
          "name": "tokenId",
          "type": "uint256"
        }
      ],
      "name": "approve",
      "outputs": [],
      "stateMutability": "nonpayable",
      "type": "function"
    },
    {
      "inputs": [
        {
          "internalType": "address",
          "name": "owner",
          "type": "address"
        }
      ],
      "name": "balanceOf",
      "outputs": [
        {
          "internalType": "uint256",
          "name": "",
          "type": "uint256"
        }
      ],
      "stateMutability": "view",
      "type": "function",
      "constant": true
    },
    {
      "inputs": [],
      "name": "buyCounter",
      "outputs": [
        {
          "internalType": "uint256",
          "name": "",
          "type": "uint256"
        }
      ],
      "stateMutability": "view",
      "type": "function",
      "constant": true
    },
    {
      "inputs": [
        {
          "internalType": "uint256",
          "name": "",
          "type": "uint256"
        }
      ],
      "name": "buyRequests",
      "outputs": [
        {
          "internalType": "uint256",
          "name": "reqId",
          "type": "uint256"
        },
        {
          "internalType": "uint256",
          "name": "tokenId",
          "type": "uint256"
        },
        {
          "internalType": "address",
          "name": "tokenOwner",
          "type": "address"
        },
        {
          "internalType": "address",
          "name": "buyee",
          "type": "address"
        },
        {
          "internalType": "uint256",
          "name": "amountPayed",
          "type": "uint256"
        },
        {
          "internalType": "bool",
          "name": "completed",
          "type": "bool"
        }
      ],
      "stateMutability": "view",
      "type": "function",
      "constant": true
    },
    {
      "inputs": [
        {
          "internalType": "uint256",
          "name": "tokenId",
          "type": "uint256"
        }
      ],
      "name": "getApproved",
      "outputs": [
        {
          "internalType": "address",
          "name": "",
          "type": "address"
        }
      ],
      "stateMutability": "view",
      "type": "function",
      "constant": true
    },
    {
      "inputs": [
        {
          "internalType": "uint256",
          "name": "",
          "type": "uint256"
        }
      ],
      "name": "investRequests",
      "outputs": [
        {
          "internalType": "uint256",
          "name": "reqId",
          "type": "uint256"
        },
        {
          "internalType": "address",
          "name": "investor",
          "type": "address"
        },
        {
          "internalType": "uint256",
          "name": "startupId",
          "type": "uint256"
        },
        {
          "internalType": "uint256",
          "name": "parts",
          "type": "uint256"
        },
        {
          "internalType": "uint256",
          "name": "amountPayed",
          "type": "uint256"
        },
        {
          "internalType": "bool",
          "name": "completed",
          "type": "bool"
        }
      ],
      "stateMutability": "view",
      "type": "function",
      "constant": true
    },
    {
      "inputs": [
        {
          "internalType": "address",
          "name": "",
          "type": "address"
        }
      ],
      "name": "investors",
      "outputs": [
        {
          "internalType": "string",
          "name": "",
          "type": "string"
        }
      ],
      "stateMutability": "view",
      "type": "function",
      "constant": true
    },
    {
      "inputs": [
        {
          "internalType": "address",
          "name": "owner",
          "type": "address"
        },
        {
          "internalType": "address",
          "name": "operator",
          "type": "address"
        }
      ],
      "name": "isApprovedForAll",
      "outputs": [
        {
          "internalType": "bool",
          "name": "",
          "type": "bool"
        }
      ],
      "stateMutability": "view",
      "type": "function",
      "constant": true
    },
    {
      "inputs": [],
      "name": "name",
      "outputs": [
        {
          "internalType": "string",
          "name": "",
          "type": "string"
        }
      ],
      "stateMutability": "view",
      "type": "function",
      "constant": true
    },
    {
      "inputs": [],
      "name": "owner",
      "outputs": [
        {
          "internalType": "address",
          "name": "",
          "type": "address"
        }
      ],
      "stateMutability": "view",
      "type": "function",
      "constant": true
    },
    {
      "inputs": [
        {
          "internalType": "uint256",
          "name": "tokenId",
          "type": "uint256"
        }
      ],
      "name": "ownerOf",
      "outputs": [
        {
          "internalType": "address",
          "name": "",
          "type": "address"
        }
      ],
      "stateMutability": "view",
      "type": "function",
      "constant": true
    },
    {
      "inputs": [],
      "name": "renounceOwnership",
      "outputs": [],
      "stateMutability": "nonpayable",
      "type": "function"
    },
    {
      "inputs": [],
      "name": "reqCounter",
      "outputs": [
        {
          "internalType": "uint256",
          "name": "",
          "type": "uint256"
        }
      ],
      "stateMutability": "view",
      "type": "function",
      "constant": true
    },
    {
      "inputs": [
        {
          "internalType": "address",
          "name": "from",
          "type": "address"
        },
        {
          "internalType": "address",
          "name": "to",
          "type": "address"
        },
        {
          "internalType": "uint256",
          "name": "tokenId",
          "type": "uint256"
        }
      ],
      "name": "safeTransferFrom",
      "outputs": [],
      "stateMutability": "nonpayable",
      "type": "function"
    },
    {
      "inputs": [
        {
          "internalType": "address",
          "name": "from",
          "type": "address"
        },
        {
          "internalType": "address",
          "name": "to",
          "type": "address"
        },
        {
          "internalType": "uint256",
          "name": "tokenId",
          "type": "uint256"
        },
        {
          "internalType": "bytes",
          "name": "data",
          "type": "bytes"
        }
      ],
      "name": "safeTransferFrom",
      "outputs": [],
      "stateMutability": "nonpayable",
      "type": "function"
    },
    {
      "inputs": [
        {
          "internalType": "address",
          "name": "operator",
          "type": "address"
        },
        {
          "internalType": "bool",
          "name": "approved",
          "type": "bool"
        }
      ],
      "name": "setApprovalForAll",
      "outputs": [],
      "stateMutability": "nonpayable",
      "type": "function"
    },
    {
      "inputs": [],
      "name": "startUpCounter",
      "outputs": [
        {
          "internalType": "uint256",
          "name": "",
          "type": "uint256"
        }
      ],
      "stateMutability": "view",
      "type": "function",
      "constant": true
    },
    {
      "inputs": [
        {
          "internalType": "uint256",
          "name": "",
          "type": "uint256"
        }
      ],
      "name": "startups",
      "outputs": [
        {
          "internalType": "uint256",
          "name": "startupId",
          "type": "uint256"
        },
        {
          "internalType": "string",
          "name": "name",
          "type": "string"
        },
        {
          "internalType": "address",
          "name": "founder",
          "type": "address"
        },
        {
          "internalType": "uint256",
          "name": "revenue",
          "type": "uint256"
        },
        {
          "internalType": "string",
          "name": "businessModel",
          "type": "string"
        },
        {
          "internalType": "uint256",
          "name": "totalFunding",
          "type": "uint256"
        },
        {
          "internalType": "uint256",
          "name": "profit",
          "type": "uint256"
        }
      ],
      "stateMutability": "view",
      "type": "function",
      "constant": true
    },
    {
      "inputs": [],
      "name": "symbol",
      "outputs": [
        {
          "internalType": "string",
          "name": "",
          "type": "string"
        }
      ],
      "stateMutability": "view",
      "type": "function",
      "constant": true
    },
    {
      "inputs": [
        {
          "internalType": "uint256",
          "name": "index",
          "type": "uint256"
        }
      ],
      "name": "tokenByIndex",
      "outputs": [
        {
          "internalType": "uint256",
          "name": "",
          "type": "uint256"
        }
      ],
      "stateMutability": "view",
      "type": "function",
      "constant": true
    },
    {
      "inputs": [
        {
          "internalType": "address",
          "name": "owner",
          "type": "address"
        },
        {
          "internalType": "uint256",
          "name": "index",
          "type": "uint256"
        }
      ],
      "name": "tokenOfOwnerByIndex",
      "outputs": [
        {
          "internalType": "uint256",
          "name": "",
          "type": "uint256"
        }
      ],
      "stateMutability": "view",
      "type": "function",
      "constant": true
    },
    {
      "inputs": [
        {
          "internalType": "uint256",
          "name": "",
          "type": "uint256"
        }
      ],
      "name": "tokenPriceMap",
      "outputs": [
        {
          "internalType": "uint256",
          "name": "",
          "type": "uint256"
        }
      ],
      "stateMutability": "view",
      "type": "function",
      "constant": true
    },
    {
      "inputs": [
        {
          "internalType": "uint256",
          "name": "",
          "type": "uint256"
        }
      ],
      "name": "tokensForSale",
      "outputs": [
        {
          "internalType": "uint256",
          "name": "",
          "type": "uint256"
        }
      ],
      "stateMutability": "view",
      "type": "function",
      "constant": true
    },
    {
      "inputs": [
        {
          "internalType": "uint256",
          "name": "",
          "type": "uint256"
        }
      ],
      "name": "tokensForSaleMap",
      "outputs": [
        {
          "internalType": "bool",
          "name": "",
          "type": "bool"
        }
      ],
      "stateMutability": "view",
      "type": "function",
      "constant": true
    },
    {
      "inputs": [],
      "name": "totalSupply",
      "outputs": [
        {
          "internalType": "uint256",
          "name": "",
          "type": "uint256"
        }
      ],
      "stateMutability": "view",
      "type": "function",
      "constant": true
    },
    {
      "inputs": [
        {
          "internalType": "address",
          "name": "from",
          "type": "address"
        },
        {
          "internalType": "address",
          "name": "to",
          "type": "address"
        },
        {
          "internalType": "uint256",
          "name": "tokenId",
          "type": "uint256"
        }
      ],
      "name": "transferFrom",
      "outputs": [],
      "stateMutability": "nonpayable",
      "type": "function"
    },
    {
      "inputs": [
        {
          "internalType": "address",
          "name": "newOwner",
          "type": "address"
        }
      ],
      "name": "transferOwnership",
      "outputs": [],
      "stateMutability": "nonpayable",
      "type": "function"
    },
    {
      "inputs": [
        {
          "internalType": "string",
          "name": "name",
          "type": "string"
        },
        {
          "internalType": "address",
          "name": "startupOwner",
          "type": "address"
        }
      ],
      "name": "createStartup",
      "outputs": [],
      "stateMutability": "nonpayable",
      "type": "function"
    },
    {
      "inputs": [
        {
          "internalType": "uint256",
          "name": "startupId",
          "type": "uint256"
        }
      ],
      "name": "getStartupByID",
      "outputs": [
        {
          "components": [
            {
              "internalType": "uint256",
              "name": "startupId",
              "type": "uint256"
            },
            {
              "internalType": "string",
              "name": "name",
              "type": "string"
            },
            {
              "internalType": "address",
              "name": "founder",
              "type": "address"
            },
            {
              "internalType": "uint256",
              "name": "revenue",
              "type": "uint256"
            },
            {
              "internalType": "string",
              "name": "businessModel",
              "type": "string"
            },
            {
              "internalType": "uint256",
              "name": "totalFunding",
              "type": "uint256"
            },
            {
              "internalType": "uint256",
              "name": "profit",
              "type": "uint256"
            }
          ],
          "internalType": "struct DAIM.Startup",
          "name": "",
          "type": "tuple"
        }
      ],
      "stateMutability": "view",
      "type": "function",
      "constant": true
    },
    {
      "inputs": [
        {
          "internalType": "string",
          "name": "name",
          "type": "string"
        }
      ],
      "name": "registerAsInvestor",
      "outputs": [],
      "stateMutability": "nonpayable",
      "type": "function"
    },
    {
      "inputs": [],
      "name": "getStartupsCount",
      "outputs": [
        {
          "internalType": "uint256",
          "name": "",
          "type": "uint256"
        }
      ],
      "stateMutability": "view",
      "type": "function",
      "constant": true
    },
    {
      "inputs": [],
      "name": "getReqCount",
      "outputs": [
        {
          "internalType": "uint256",
          "name": "",
          "type": "uint256"
        }
      ],
      "stateMutability": "view",
      "type": "function",
      "constant": true
    },
    {
      "inputs": [],
      "name": "getBuyReqCount",
      "outputs": [
        {
          "internalType": "uint256",
          "name": "",
          "type": "uint256"
        }
      ],
      "stateMutability": "view",
      "type": "function",
      "constant": true
    },
    {
      "inputs": [],
      "name": "getTokensForSaleCount",
      "outputs": [
        {
          "internalType": "uint256",
          "name": "",
          "type": "uint256"
        }
      ],
      "stateMutability": "view",
      "type": "function",
      "constant": true
    },
    {
      "inputs": [
        {
          "internalType": "uint256",
          "name": "startupId",
          "type": "uint256"
        },
        {
          "internalType": "uint256",
          "name": "parts",
          "type": "uint256"
        }
      ],
      "name": "createInvestRequest",
      "outputs": [],
      "stateMutability": "payable",
      "type": "function",
      "payable": true
    },
    {
      "inputs": [
        {
          "internalType": "uint256",
          "name": "reqId",
          "type": "uint256"
        }
      ],
      "name": "approveInvestRequest",
      "outputs": [],
      "stateMutability": "nonpayable",
      "type": "function"
    },
    {
      "inputs": [
        {
          "internalType": "uint256",
          "name": "reqId",
          "type": "uint256"
        }
      ],
      "name": "rejectInvestRequest",
      "outputs": [],
      "stateMutability": "nonpayable",
      "type": "function"
    },
    {
      "inputs": [
        {
          "internalType": "uint256",
          "name": "tokenId",
          "type": "uint256"
        }
      ],
      "name": "putYourShareForSale",
      "outputs": [],
      "stateMutability": "nonpayable",
      "type": "function"
    },
    {
      "inputs": [
        {
          "internalType": "uint256",
          "name": "tokenId",
          "type": "uint256"
        }
      ],
      "name": "createBuyRequest",
      "outputs": [],
      "stateMutability": "payable",
      "type": "function",
      "payable": true
    },
    {
      "inputs": [
        {
          "internalType": "uint256",
          "name": "reqId",
          "type": "uint256"
        }
      ],
      "name": "approveBuyRequest",
      "outputs": [],
      "stateMutability": "nonpayable",
      "type": "function"
    },
    {
      "inputs": [
        {
          "internalType": "uint256",
          "name": "reqId",
          "type": "uint256"
        }
      ],
      "name": "rejectbuyRequest",
      "outputs": [],
      "stateMutability": "nonpayable",
      "type": "function"
    },
    {
      "inputs": [
        {
          "internalType": "address",
          "name": "to",
          "type": "address"
        },
        {
          "internalType": "uint256",
          "name": "startupId",
          "type": "uint256"
        },
        {
          "internalType": "uint256",
          "name": "parts",
          "type": "uint256"
        }
      ],
      "name": "mintTokenSafely",
      "outputs": [],
      "stateMutability": "nonpayable",
      "type": "function"
    },
    {
      "inputs": [
        {
          "internalType": "bytes4",
          "name": "interfaceId",
          "type": "bytes4"
        }
      ],
      "name": "supportsInterface",
      "outputs": [
        {
          "internalType": "bool",
          "name": "",
          "type": "bool"
        }
      ],
      "stateMutability": "view",
      "type": "function",
      "constant": true
    },
    {
      "inputs": [
        {
          "internalType": "uint256",
          "name": "tokenId",
          "type": "uint256"
        }
      ],
      "name": "tokenURI",
      "outputs": [
        {
          "internalType": "string",
          "name": "",
          "type": "string"
        }
      ],
      "stateMutability": "view",
      "type": "function",
      "constant": true
    }
  ],
  "bytecode": "0x60806040526000600c556000600d556000600e556127106011553480156200002657600080fd5b506040518060400160405280600881526020017f4441494d2d4e46540000000000000000000000000000000000000000000000008152506040518060400160405280600481526020017f4441494d000000000000000000000000000000000000000000000000000000008152508160009081620000a4919062000495565b508060019081620000b6919062000495565b505050620000d9620000cd6200013760201b60201c565b6200013f60201b60201c565b33600f60006101000a81548173ffffffffffffffffffffffffffffffffffffffff021916908373ffffffffffffffffffffffffffffffffffffffff1602179055506200013160106200020560201b620023e31760201c565b6200057c565b600033905090565b6000600b60009054906101000a900473ffffffffffffffffffffffffffffffffffffffff16905081600b60006101000a81548173ffffffffffffffffffffffffffffffffffffffff021916908373ffffffffffffffffffffffffffffffffffffffff1602179055508173ffffffffffffffffffffffffffffffffffffffff168173ffffffffffffffffffffffffffffffffffffffff167f8be0079c531659141344cd1fd0a4f28419497f9722a3daafe3b4186f6b6457e060405160405180910390a35050565b6001816000016000828254019250508190555050565b600081519050919050565b7f4e487b7100000000000000000000000000000000000000000000000000000000600052604160045260246000fd5b7f4e487b7100000000000000000000000000000000000000000000000000000000600052602260045260246000fd5b600060028204905060018216806200029d57607f821691505b602082108103620002b357620002b262000255565b5b50919050565b60008190508160005260206000209050919050565b60006020601f8301049050919050565b600082821b905092915050565b6000600883026200031d7fffffffffffffffffffffffffffffffffffffffffffffffffffffffffffffffff82620002de565b620003298683620002de565b95508019841693508086168417925050509392505050565b6000819050919050565b6000819050919050565b600062000376620003706200036a8462000341565b6200034b565b62000341565b9050919050565b6000819050919050565b620003928362000355565b620003aa620003a1826200037d565b848454620002eb565b825550505050565b600090565b620003c1620003b2565b620003ce81848462000387565b505050565b5b81811015620003f657620003ea600082620003b7565b600181019050620003d4565b5050565b601f82111562000445576200040f81620002b9565b6200041a84620002ce565b810160208510156200042a578190505b620004426200043985620002ce565b830182620003d3565b50505b505050565b600082821c905092915050565b60006200046a600019846008026200044a565b1980831691505092915050565b600062000485838362000457565b9150826002028217905092915050565b620004a0826200021b565b67ffffffffffffffff811115620004bc57620004bb62000226565b5b620004c8825462000284565b620004d5828285620003fa565b600060209050601f8311600181146200050d5760008415620004f8578287015190505b62000504858262000477565b86555062000574565b601f1984166200051d86620002b9565b60005b82811015620005475784890151825560018201915060208501945060208101905062000520565b8683101562000567578489015162000563601f89168262000457565b8355505b6001600288020188555050505b505050505050565b6154b3806200058c6000396000f3fe6080604052600436106102725760003560e01c806382df30f01161014f578063c3d1431c116100c1578063d81635d91161007a578063d81635d9146109c2578063d91db9a0146109eb578063e985e9c514610a2e578063f21111a414610a6b578063f2fde38b14610a94578063f851a44014610abd57610272565b8063c3d1431c146108a5578063c87b56dd146108c1578063cc95a143146108fe578063d4ad86e814610927578063d605401e14610969578063d6ffe9451461098557610272565b806395d89b411161011357806395d89b411461078057806398a45adb146107ab578063a22cb465146107ed578063b4d8fcba14610816578063b6f73cd71461083f578063b88d4fde1461087c57610272565b806382df30f01461069757806387b37468146106c25780638da5cb5b146106ff57806391ceedbf1461072a5780639553a3f71461075557610272565b806342842e0e116101e857806365d0d3cc116101ac57806365d0d3cc1461057557806369ad3976146105b25780636f7bc9be146105dd57806370a082311461061a578063715018a614610657578063799a83c21461066e57610272565b806342842e0e1461047c5780634ed90531146104a55780634f6ccce7146104d05780635297408a1461050d5780636352211e1461053857610272565b806318160ddd1161023a57806318160ddd1461037057806323b872dd1461039b5780632f745c59146103c457806339d96632146104015780633c6015791461042a5780633ffd332b1461045357610272565b806301181f9b1461027757806301ffc9a7146102a257806306fdde03146102df578063081812fc1461030a578063095ea7b314610347575b600080fd5b34801561028357600080fd5b5061028c610ae8565b6040516102999190613c5e565b60405180910390f35b3480156102ae57600080fd5b506102c960048036038101906102c49190613ce5565b610af5565b6040516102d69190613d2d565b60405180910390f35b3480156102eb57600080fd5b506102f4610b07565b6040516103019190613dd8565b60405180910390f35b34801561031657600080fd5b50610331600480360381019061032c9190613e26565b610b99565b60405161033e9190613e94565b60405180910390f35b34801561035357600080fd5b5061036e60048036038101906103699190613edb565b610bdf565b005b34801561037c57600080fd5b50610385610cf6565b6040516103929190613c5e565b60405180910390f35b3480156103a757600080fd5b506103c260048036038101906103bd9190613f1b565b610d03565b005b3480156103d057600080fd5b506103eb60048036038101906103e69190613edb565b610d63565b6040516103f89190613c5e565b60405180910390f35b34801561040d57600080fd5b50610428600480360381019061042391906140a3565b610e08565b005b34801561043657600080fd5b50610451600480360381019061044c9190613e26565b610eab565b005b34801561045f57600080fd5b5061047a60048036038101906104759190613e26565b610fdf565b005b34801561048857600080fd5b506104a3600480360381019061049e9190613f1b565b611176565b005b3480156104b157600080fd5b506104ba611196565b6040516104c79190613c5e565b60405180910390f35b3480156104dc57600080fd5b506104f760048036038101906104f29190613e26565b6111a3565b6040516105049190613c5e565b60405180910390f35b34801561051957600080fd5b50610522611214565b60405161052f9190613c5e565b60405180910390f35b34801561054457600080fd5b5061055f600480360381019061055a9190613e26565b61121a565b60405161056c9190613e94565b60405180910390f35b34801561058157600080fd5b5061059c60048036038101906105979190613e26565b6112a0565b6040516105a9919061420a565b60405180910390f35b3480156105be57600080fd5b506105c761148f565b6040516105d49190613c5e565b60405180910390f35b3480156105e957600080fd5b5061060460048036038101906105ff919061422c565b61149c565b6040516106119190613dd8565b60405180910390f35b34801561062657600080fd5b50610641600480360381019061063c919061422c565b61153c565b60405161064e9190613c5e565b60405180910390f35b34801561066357600080fd5b5061066c6115f3565b005b34801561067a57600080fd5b5061069560048036038101906106909190614259565b611607565b005b3480156106a357600080fd5b506106ac6116d2565b6040516106b99190613c5e565b60405180910390f35b3480156106ce57600080fd5b506106e960048036038101906106e49190613e26565b6116d8565b6040516106f69190613c5e565b60405180910390f35b34801561070b57600080fd5b506107146116fc565b6040516107219190613e94565b60405180910390f35b34801561073657600080fd5b5061073f611726565b60405161074c9190613c5e565b60405180910390f35b34801561076157600080fd5b5061076a61172c565b6040516107779190613c5e565b60405180910390f35b34801561078c57600080fd5b50610795611739565b6040516107a29190613dd8565b60405180910390f35b3480156107b757600080fd5b506107d260048036038101906107cd9190613e26565b6117cb565b6040516107e4969594939291906142ac565b60405180910390f35b3480156107f957600080fd5b50610814600480360381019061080f9190614339565b611864565b005b34801561082257600080fd5b5061083d60048036038101906108389190613e26565b61187a565b005b34801561084b57600080fd5b5061086660048036038101906108619190613e26565b6119d3565b6040516108739190613c5e565b60405180910390f35b34801561088857600080fd5b506108a3600480360381019061089e919061441a565b6119eb565b005b6108bf60048036038101906108ba919061449d565b611a4d565b005b3480156108cd57600080fd5b506108e860048036038101906108e39190613e26565b611b7c565b6040516108f59190613dd8565b60405180910390f35b34801561090a57600080fd5b50610925600480360381019061092091906144dd565b611b8e565b005b34801561093357600080fd5b5061094e60048036038101906109499190613e26565b611c44565b60405161096096959493929190614526565b60405180910390f35b610983600480360381019061097e9190613e26565b611cbd565b005b34801561099157600080fd5b506109ac60048036038101906109a79190613e26565b611e50565b6040516109b99190613d2d565b60405180910390f35b3480156109ce57600080fd5b506109e960048036038101906109e49190613e26565b611e70565b005b3480156109f757600080fd5b50610a126004803603810190610a0d9190613e26565b612003565b604051610a259796959493929190614587565b60405180910390f35b348015610a3a57600080fd5b50610a556004803603810190610a509190614604565b612185565b604051610a629190613d2d565b60405180910390f35b348015610a7757600080fd5b50610a926004803603810190610a8d9190613e26565b612219565b005b348015610aa057600080fd5b50610abb6004803603810190610ab6919061422c565b61233a565b005b348015610ac957600080fd5b50610ad26123bd565b604051610adf9190613e94565b60405180910390f35b6000601780549050905090565b6000610b00826123f9565b9050919050565b606060008054610b1690614673565b80601f0160208091040260200160405190810160405280929190818152602001828054610b4290614673565b8015610b8f5780601f10610b6457610100808354040283529160200191610b8f565b820191906000526020600020905b815481529060010190602001808311610b7257829003601f168201915b5050505050905090565b6000610ba482612473565b6004600083815260200190815260200160002060009054906101000a900473ffffffffffffffffffffffffffffffffffffffff169050919050565b6000610bea8261121a565b90508073ffffffffffffffffffffffffffffffffffffffff168373ffffffffffffffffffffffffffffffffffffffff1603610c5a576040517f08c379a0000000000000000000000000000000000000000000000000000000008152600401610c5190614716565b60405180910390fd5b8073ffffffffffffffffffffffffffffffffffffffff16610c796124be565b73ffffffffffffffffffffffffffffffffffffffff161480610ca85750610ca781610ca26124be565b612185565b5b610ce7576040517f08c379a0000000000000000000000000000000000000000000000000000000008152600401610cde906147a8565b60405180910390fd5b610cf183836124c6565b505050565b6000600880549050905090565b610d14610d0e6124be565b8261257f565b610d53576040517f08c379a0000000000000000000000000000000000000000000000000000000008152600401610d4a9061483a565b60405180910390fd5b610d5e838383612614565b505050565b6000610d6e8361153c565b8210610daf576040517f08c379a0000000000000000000000000000000000000000000000000000000008152600401610da6906148cc565b60405180910390fd5b600660008473ffffffffffffffffffffffffffffffffffffffff1673ffffffffffffffffffffffffffffffffffffffff168152602001908152602001600020600083815260200190815260200160002054905092915050565b60006015600181600181540180825580915050039060005260206000209060070201905082816001019081610e3d9190614a98565b50600c548160000181905550818160020160006101000a81548173ffffffffffffffffffffffffffffffffffffffff021916908373ffffffffffffffffffffffffffffffffffffffff1602179055506001600c6000828254610e9f9190614b99565b92505081905550505050565b600060148281548110610ec157610ec0614bcd565b5b906000526020600020906006020190503373ffffffffffffffffffffffffffffffffffffffff168160020160009054906101000a900473ffffffffffffffffffffffffffffffffffffffff1673ffffffffffffffffffffffffffffffffffffffff1614610f2d57600080fd5b600115158160050160009054906101000a900460ff16151503610f4f57600080fd5b8060030160009054906101000a900473ffffffffffffffffffffffffffffffffffffffff1673ffffffffffffffffffffffffffffffffffffffff166108fc82600401549081150290604051600060405180830381858888f19350505050158015610fbd573d6000803e3d6000fd5b5060018160050160006101000a81548160ff0219169083151502179055505050565b600060138281548110610ff557610ff4614bcd565b5b90600052602060002090600602019050601581600201548154811061101d5761101c614bcd565b5b906000526020600020906007020160020160009054906101000a900473ffffffffffffffffffffffffffffffffffffffff1673ffffffffffffffffffffffffffffffffffffffff163373ffffffffffffffffffffffffffffffffffffffff161461108657600080fd5b600115158160050160009054906101000a900460ff161515036110a857600080fd5b60006110b4601061290d565b9050816004015460126000838152602001908152602001600020819055506111098260010160009054906101000a900473ffffffffffffffffffffffffffffffffffffffff1683600201548460030154611607565b3373ffffffffffffffffffffffffffffffffffffffff166108fc83600401549081150290604051600060405180830381858888f19350505050158015611153573d6000803e3d6000fd5b5060018260050160006101000a81548160ff021916908315150217905550505050565b611191838383604051806020016040528060008152506119eb565b505050565b6000601580549050905090565b60006111ad610cf6565b82106111ee576040517f08c379a00000000000000000000000000000000000000000000000000000000081526004016111e590614c6e565b60405180910390fd5b6008828154811061120257611201614bcd565b5b90600052602060002001549050919050565b600d5481565b6000806112268361291b565b9050600073ffffffffffffffffffffffffffffffffffffffff168173ffffffffffffffffffffffffffffffffffffffff1603611297576040517f08c379a000000000000000000000000000000000000000000000000000000000815260040161128e90614cda565b60405180910390fd5b80915050919050565b6112a8613bf2565b60158054905082106112b957600080fd5b601582815481106112cd576112cc614bcd565b5b90600052602060002090600702016040518060e00160405290816000820154815260200160018201805461130090614673565b80601f016020809104026020016040519081016040528092919081815260200182805461132c90614673565b80156113795780601f1061134e57610100808354040283529160200191611379565b820191906000526020600020905b81548152906001019060200180831161135c57829003601f168201915b505050505081526020016002820160009054906101000a900473ffffffffffffffffffffffffffffffffffffffff1673ffffffffffffffffffffffffffffffffffffffff1673ffffffffffffffffffffffffffffffffffffffff168152602001600382015481526020016004820180546113f290614673565b80601f016020809104026020016040519081016040528092919081815260200182805461141e90614673565b801561146b5780601f106114405761010080835404028352916020019161146b565b820191906000526020600020905b81548152906001019060200180831161144e57829003601f168201915b50505050508152602001600582015481526020016006820154815250509050919050565b6000601380549050905090565b601660205280600052604060002060009150905080546114bb90614673565b80601f01602080910402602001604051908101604052809291908181526020018280546114e790614673565b80156115345780601f1061150957610100808354040283529160200191611534565b820191906000526020600020905b81548152906001019060200180831161151757829003601f168201915b505050505081565b60008073ffffffffffffffffffffffffffffffffffffffff168273ffffffffffffffffffffffffffffffffffffffff16036115ac576040517f08c379a00000000000000000000000000000000000000000000000000000000081526004016115a390614d6c565b60405180910390fd5b600360008373ffffffffffffffffffffffffffffffffffffffff1673ffffffffffffffffffffffffffffffffffffffff168152602001908152602001600020549050919050565b6115fb612958565b61160560006129d6565b565b6000611613601061290d565b905060006040518060400160405280600181526020017f5f000000000000000000000000000000000000000000000000000000000000008152509050600061165a85612a9c565b8260405160200161166c929190614dc8565b604051602081830303815290604052905060008161168986612a9c565b60405160200161169a929190614dc8565b60405160208183030381529060405290506116b58785612b6a565b6116bf8482612b88565b6116c960106123e3565b50505050505050565b600c5481565b601781815481106116e857600080fd5b906000526020600020016000915090505481565b6000600b60009054906101000a900473ffffffffffffffffffffffffffffffffffffffff16905090565b600e5481565b6000601480549050905090565b60606001805461174890614673565b80601f016020809104026020016040519081016040528092919081815260200182805461177490614673565b80156117c15780601f10611796576101008083540402835291602001916117c1565b820191906000526020600020905b8154815290600101906020018083116117a457829003601f168201915b5050505050905090565b601481815481106117db57600080fd5b90600052602060002090600602016000915090508060000154908060010154908060020160009054906101000a900473ffffffffffffffffffffffffffffffffffffffff16908060030160009054906101000a900473ffffffffffffffffffffffffffffffffffffffff16908060040154908060050160009054906101000a900460ff16905086565b61187661186f6124be565b8383612bf5565b5050565b6000601382815481106118905761188f614bcd565b5b9060005260206000209060060201905060158160020154815481106118b8576118b7614bcd565b5b906000526020600020906007020160020160009054906101000a900473ffffffffffffffffffffffffffffffffffffffff1673ffffffffffffffffffffffffffffffffffffffff163373ffffffffffffffffffffffffffffffffffffffff161461192157600080fd5b600115158160050160009054906101000a900460ff1615150361194357600080fd5b8060010160009054906101000a900473ffffffffffffffffffffffffffffffffffffffff1673ffffffffffffffffffffffffffffffffffffffff166108fc82600401549081150290604051600060405180830381858888f193505050501580156119b1573d6000803e3d6000fd5b5060018160050160006101000a81548160ff0219169083151502179055505050565b60126020528060005260406000206000915090505481565b6119fc6119f66124be565b8361257f565b611a3b576040517f08c379a0000000000000000000000000000000000000000000000000000000008152600401611a329061483a565b60405180910390fd5b611a4784848484612d61565b50505050565b6000601660003373ffffffffffffffffffffffffffffffffffffffff1673ffffffffffffffffffffffffffffffffffffffff1681526020019081526020016000208054611a9990614673565b905003611aa557600080fd5b600c548210611ab357600080fd5b600060136001816001815401808255809150500390600052602060002090600602019050600d548160000181905550338160010160006101000a81548173ffffffffffffffffffffffffffffffffffffffff021916908373ffffffffffffffffffffffffffffffffffffffff16021790555082816002018190555081816003018190555034816004018190555060008160050160006101000a81548160ff0219169083151502179055506001600d6000828254611b709190614b99565b92505081905550505050565b6060611b8782612dbd565b9050919050565b6000815103611b9c57600080fd5b6000601660003373ffffffffffffffffffffffffffffffffffffffff1673ffffffffffffffffffffffffffffffffffffffff1681526020019081526020016000208054611be890614673565b905014611bf457600080fd5b80601660003373ffffffffffffffffffffffffffffffffffffffff1673ffffffffffffffffffffffffffffffffffffffff1681526020019081526020016000209081611c409190614a98565b5050565b60138181548110611c5457600080fd5b90600052602060002090600602016000915090508060000154908060010160009054906101000a900473ffffffffffffffffffffffffffffffffffffffff16908060020154908060030154908060040154908060050160009054906101000a900460ff16905086565b6000601660003373ffffffffffffffffffffffffffffffffffffffff1673ffffffffffffffffffffffffffffffffffffffff1681526020019081526020016000208054611d0990614673565b905003611d1557600080fd5b600115156018600083815260200190815260200160002060009054906101000a900460ff16151514611d4657600080fd5b600060146001816001815401808255809150500390600052602060002090600602019050600e548160000181905550818160010181905550611d878261121a565b8160020160006101000a81548173ffffffffffffffffffffffffffffffffffffffff021916908373ffffffffffffffffffffffffffffffffffffffff160217905550338160030160006101000a81548173ffffffffffffffffffffffffffffffffffffffff021916908373ffffffffffffffffffffffffffffffffffffffff16021790555034816004018190555060008160050160006101000a81548160ff0219169083151502179055506001600e6000828254611e459190614b99565b925050819055505050565b60186020528060005260406000206000915054906101000a900460ff1681565b600060148281548110611e8657611e85614bcd565b5b906000526020600020906006020190503373ffffffffffffffffffffffffffffffffffffffff168160020160009054906101000a900473ffffffffffffffffffffffffffffffffffffffff1673ffffffffffffffffffffffffffffffffffffffff1614611ef257600080fd5b600115158160050160009054906101000a900460ff16151503611f1457600080fd5b3373ffffffffffffffffffffffffffffffffffffffff166108fc82600401549081150290604051600060405180830381858888f19350505050158015611f5e573d6000803e3d6000fd5b5060018160050160006101000a81548160ff0219169083151502179055506000601860008360010154815260200190815260200160002060006101000a81548160ff0219169083151502179055508060040154601260008360010154815260200190815260200160002081905550611fff338260030160009054906101000a900473ffffffffffffffffffffffffffffffffffffffff168360010154611176565b5050565b6015818154811061201357600080fd5b906000526020600020906007020160009150905080600001549080600101805461203c90614673565b80601f016020809104026020016040519081016040528092919081815260200182805461206890614673565b80156120b55780601f1061208a576101008083540402835291602001916120b5565b820191906000526020600020905b81548152906001019060200180831161209857829003601f168201915b5050505050908060020160009054906101000a900473ffffffffffffffffffffffffffffffffffffffff16908060030154908060040180546120f690614673565b80601f016020809104026020016040519081016040528092919081815260200182805461212290614673565b801561216f5780601f106121445761010080835404028352916020019161216f565b820191906000526020600020905b81548152906001019060200180831161215257829003601f168201915b5050505050908060050154908060060154905087565b6000600560008473ffffffffffffffffffffffffffffffffffffffff1673ffffffffffffffffffffffffffffffffffffffff16815260200190815260200160002060008373ffffffffffffffffffffffffffffffffffffffff1673ffffffffffffffffffffffffffffffffffffffff16815260200190815260200160002060009054906101000a900460ff16905092915050565b6000601660003373ffffffffffffffffffffffffffffffffffffffff1673ffffffffffffffffffffffffffffffffffffffff168152602001908152602001600020805461226590614673565b90500361227157600080fd5b3373ffffffffffffffffffffffffffffffffffffffff166122918261121a565b73ffffffffffffffffffffffffffffffffffffffff16146122b157600080fd5b600115156018600083815260200190815260200160002060009054906101000a900460ff161515036122e257600080fd5b60016018600083815260200190815260200160002060006101000a81548160ff021916908315150217905550601781908060018154018082558091505060019003906000526020600020016000909190919091505550565b612342612958565b600073ffffffffffffffffffffffffffffffffffffffff168173ffffffffffffffffffffffffffffffffffffffff16036123b1576040517f08c379a00000000000000000000000000000000000000000000000000000000081526004016123a890614e5e565b60405180910390fd5b6123ba816129d6565b50565b600f60009054906101000a900473ffffffffffffffffffffffffffffffffffffffff1681565b6001816000016000828254019250508190555050565b60007f780e9d63000000000000000000000000000000000000000000000000000000007bffffffffffffffffffffffffffffffffffffffffffffffffffffffff1916827bffffffffffffffffffffffffffffffffffffffffffffffffffffffff1916148061246c575061246b82612ecf565b5b9050919050565b61247c81612fb1565b6124bb576040517f08c379a00000000000000000000000000000000000000000000000000000000081526004016124b290614cda565b60405180910390fd5b50565b600033905090565b816004600083815260200190815260200160002060006101000a81548173ffffffffffffffffffffffffffffffffffffffff021916908373ffffffffffffffffffffffffffffffffffffffff160217905550808273ffffffffffffffffffffffffffffffffffffffff166125398361121a565b73ffffffffffffffffffffffffffffffffffffffff167f8c5be1e5ebec7d5bd14f71427d1e84f3dd0314c0f7b2291e5b200ac8c7c3b92560405160405180910390a45050565b60008061258b8361121a565b90508073ffffffffffffffffffffffffffffffffffffffff168473ffffffffffffffffffffffffffffffffffffffff1614806125cd57506125cc8185612185565b5b8061260b57508373ffffffffffffffffffffffffffffffffffffffff166125f384610b99565b73ffffffffffffffffffffffffffffffffffffffff16145b91505092915050565b8273ffffffffffffffffffffffffffffffffffffffff166126348261121a565b73ffffffffffffffffffffffffffffffffffffffff161461268a576040517f08c379a000000000000000000000000000000000000000000000000000000000815260040161268190614ef0565b60405180910390fd5b600073ffffffffffffffffffffffffffffffffffffffff168273ffffffffffffffffffffffffffffffffffffffff16036126f9576040517f08c379a00000000000000000000000000000000000000000000000000000000081526004016126f090614f82565b60405180910390fd5b6127068383836001612ff2565b8273ffffffffffffffffffffffffffffffffffffffff166127268261121a565b73ffffffffffffffffffffffffffffffffffffffff161461277c576040517f08c379a000000000000000000000000000000000000000000000000000000000815260040161277390614ef0565b60405180910390fd5b6004600082815260200190815260200160002060006101000a81549073ffffffffffffffffffffffffffffffffffffffff02191690556001600360008573ffffffffffffffffffffffffffffffffffffffff1673ffffffffffffffffffffffffffffffffffffffff168152602001908152602001600020600082825403925050819055506001600360008473ffffffffffffffffffffffffffffffffffffffff1673ffffffffffffffffffffffffffffffffffffffff16815260200190815260200160002060008282540192505081905550816002600083815260200190815260200160002060006101000a81548173ffffffffffffffffffffffffffffffffffffffff021916908373ffffffffffffffffffffffffffffffffffffffff160217905550808273ffffffffffffffffffffffffffffffffffffffff168473ffffffffffffffffffffffffffffffffffffffff167fddf252ad1be2c89b69c2b068fc378daa952ba7f163c4a11628f55a4df523b3ef60405160405180910390a46129088383836001613004565b505050565b600081600001549050919050565b60006002600083815260200190815260200160002060009054906101000a900473ffffffffffffffffffffffffffffffffffffffff169050919050565b6129606124be565b73ffffffffffffffffffffffffffffffffffffffff1661297e6116fc565b73ffffffffffffffffffffffffffffffffffffffff16146129d4576040517f08c379a00000000000000000000000000000000000000000000000000000000081526004016129cb90614fee565b60405180910390fd5b565b6000600b60009054906101000a900473ffffffffffffffffffffffffffffffffffffffff16905081600b60006101000a81548173ffffffffffffffffffffffffffffffffffffffff021916908373ffffffffffffffffffffffffffffffffffffffff1602179055508173ffffffffffffffffffffffffffffffffffffffff168173ffffffffffffffffffffffffffffffffffffffff167f8be0079c531659141344cd1fd0a4f28419497f9722a3daafe3b4186f6b6457e060405160405180910390a35050565b606060006001612aab8461300a565b01905060008167ffffffffffffffff811115612aca57612ac9613f78565b5b6040519080825280601f01601f191660200182016040528015612afc5781602001600182028036833780820191505090505b509050600082602001820190505b600115612b5f578080600190039150507f3031323334353637383961626364656600000000000000000000000000000000600a86061a8153600a8581612b5357612b5261500e565b5b04945060008503612b0a575b819350505050919050565b612b8482826040518060200160405280600081525061315d565b5050565b612b9182612fb1565b612bd0576040517f08c379a0000000000000000000000000000000000000000000000000000000008152600401612bc7906150af565b60405180910390fd5b80600a60008481526020019081526020016000209081612bf09190614a98565b505050565b8173ffffffffffffffffffffffffffffffffffffffff168373ffffffffffffffffffffffffffffffffffffffff1603612c63576040517f08c379a0000000000000000000000000000000000000000000000000000000008152600401612c5a9061511b565b60405180910390fd5b80600560008573ffffffffffffffffffffffffffffffffffffffff1673ffffffffffffffffffffffffffffffffffffffff16815260200190815260200160002060008473ffffffffffffffffffffffffffffffffffffffff1673ffffffffffffffffffffffffffffffffffffffff16815260200190815260200160002060006101000a81548160ff0219169083151502179055508173ffffffffffffffffffffffffffffffffffffffff168373ffffffffffffffffffffffffffffffffffffffff167f17307eab39ab6107e8899845ad3d59bd9653f200f220920489ca2b5937696c3183604051612d549190613d2d565b60405180910390a3505050565b612d6c848484612614565b612d78848484846131b8565b612db7576040517f08c379a0000000000000000000000000000000000000000000000000000000008152600401612dae906151ad565b60405180910390fd5b50505050565b6060612dc882612473565b6000600a60008481526020019081526020016000208054612de890614673565b80601f0160208091040260200160405190810160405280929190818152602001828054612e1490614673565b8015612e615780601f10612e3657610100808354040283529160200191612e61565b820191906000526020600020905b815481529060010190602001808311612e4457829003601f168201915b505050505090506000612e7261333f565b90506000815103612e87578192505050612eca565b600082511115612ebc578082604051602001612ea4929190614dc8565b60405160208183030381529060405292505050612eca565b612ec584613356565b925050505b919050565b60007f80ac58cd000000000000000000000000000000000000000000000000000000007bffffffffffffffffffffffffffffffffffffffffffffffffffffffff1916827bffffffffffffffffffffffffffffffffffffffffffffffffffffffff19161480612f9a57507f5b5e139f000000000000000000000000000000000000000000000000000000007bffffffffffffffffffffffffffffffffffffffffffffffffffffffff1916827bffffffffffffffffffffffffffffffffffffffffffffffffffffffff1916145b80612faa5750612fa9826133be565b5b9050919050565b60008073ffffffffffffffffffffffffffffffffffffffff16612fd38361291b565b73ffffffffffffffffffffffffffffffffffffffff1614159050919050565b612ffe84848484613428565b50505050565b50505050565b600080600090507a184f03e93ff9f4daa797ed6e38ed64bf6a1f0100000000000000008310613068577a184f03e93ff9f4daa797ed6e38ed64bf6a1f010000000000000000838161305e5761305d61500e565b5b0492506040810190505b6d04ee2d6d415b85acef810000000083106130a5576d04ee2d6d415b85acef8100000000838161309b5761309a61500e565b5b0492506020810190505b662386f26fc1000083106130d457662386f26fc1000083816130ca576130c961500e565b5b0492506010810190505b6305f5e10083106130fd576305f5e10083816130f3576130f261500e565b5b0492506008810190505b61271083106131225761271083816131185761311761500e565b5b0492506004810190505b60648310613145576064838161313b5761313a61500e565b5b0492506002810190505b600a8310613154576001810190505b80915050919050565b6131678383613586565b61317460008484846131b8565b6131b3576040517f08c379a00000000000000000000000000000000000000000000000000000000081526004016131aa906151ad565b60405180910390fd5b505050565b60006131d98473ffffffffffffffffffffffffffffffffffffffff166137a3565b15613332578373ffffffffffffffffffffffffffffffffffffffff1663150b7a026132026124be565b8786866040518563ffffffff1660e01b81526004016132249493929190615222565b6020604051808303816000875af192505050801561326057506040513d601f19601f8201168201806040525081019061325d9190615283565b60015b6132e2573d8060008114613290576040519150601f19603f3d011682016040523d82523d6000602084013e613295565b606091505b5060008151036132da576040517f08c379a00000000000000000000000000000000000000000000000000000000081526004016132d1906151ad565b60405180910390fd5b805181602001fd5b63150b7a0260e01b7bffffffffffffffffffffffffffffffffffffffffffffffffffffffff1916817bffffffffffffffffffffffffffffffffffffffffffffffffffffffff191614915050613337565b600190505b949350505050565b606060405180602001604052806000815250905090565b606061336182612473565b600061336b61333f565b9050600081511161338b57604051806020016040528060008152506133b6565b8061339584612a9c565b6040516020016133a6929190614dc8565b6040516020818303038152906040525b915050919050565b60007f01ffc9a7000000000000000000000000000000000000000000000000000000007bffffffffffffffffffffffffffffffffffffffffffffffffffffffff1916827bffffffffffffffffffffffffffffffffffffffffffffffffffffffff1916149050919050565b613434848484846137c6565b6001811115613478576040517f08c379a000000000000000000000000000000000000000000000000000000000815260040161346f90615322565b60405180910390fd5b6000829050600073ffffffffffffffffffffffffffffffffffffffff168573ffffffffffffffffffffffffffffffffffffffff16036134bf576134ba816138ec565b6134fe565b8373ffffffffffffffffffffffffffffffffffffffff168573ffffffffffffffffffffffffffffffffffffffff16146134fd576134fc8582613935565b5b5b600073ffffffffffffffffffffffffffffffffffffffff168473ffffffffffffffffffffffffffffffffffffffff16036135405761353b81613aa2565b61357f565b8473ffffffffffffffffffffffffffffffffffffffff168473ffffffffffffffffffffffffffffffffffffffff161461357e5761357d8482613b73565b5b5b5050505050565b600073ffffffffffffffffffffffffffffffffffffffff168273ffffffffffffffffffffffffffffffffffffffff16036135f5576040517f08c379a00000000000000000000000000000000000000000000000000000000081526004016135ec9061538e565b60405180910390fd5b6135fe81612fb1565b1561363e576040517f08c379a0000000000000000000000000000000000000000000000000000000008152600401613635906153fa565b60405180910390fd5b61364c600083836001612ff2565b61365581612fb1565b15613695576040517f08c379a000000000000000000000000000000000000000000000000000000000815260040161368c906153fa565b60405180910390fd5b6001600360008473ffffffffffffffffffffffffffffffffffffffff1673ffffffffffffffffffffffffffffffffffffffff16815260200190815260200160002060008282540192505081905550816002600083815260200190815260200160002060006101000a81548173ffffffffffffffffffffffffffffffffffffffff021916908373ffffffffffffffffffffffffffffffffffffffff160217905550808273ffffffffffffffffffffffffffffffffffffffff16600073ffffffffffffffffffffffffffffffffffffffff167fddf252ad1be2c89b69c2b068fc378daa952ba7f163c4a11628f55a4df523b3ef60405160405180910390a461379f600083836001613004565b5050565b6000808273ffffffffffffffffffffffffffffffffffffffff163b119050919050565b60018111156138e657600073ffffffffffffffffffffffffffffffffffffffff168473ffffffffffffffffffffffffffffffffffffffff161461385a5780600360008673ffffffffffffffffffffffffffffffffffffffff1673ffffffffffffffffffffffffffffffffffffffff1681526020019081526020016000206000828254613852919061541a565b925050819055505b600073ffffffffffffffffffffffffffffffffffffffff168373ffffffffffffffffffffffffffffffffffffffff16146138e55780600360008573ffffffffffffffffffffffffffffffffffffffff1673ffffffffffffffffffffffffffffffffffffffff16815260200190815260200160002060008282546138dd9190614b99565b925050819055505b5b50505050565b6008805490506009600083815260200190815260200160002081905550600881908060018154018082558091505060019003906000526020600020016000909190919091505550565b600060016139428461153c565b61394c919061541a565b9050600060076000848152602001908152602001600020549050818114613a31576000600660008673ffffffffffffffffffffffffffffffffffffffff1673ffffffffffffffffffffffffffffffffffffffff168152602001908152602001600020600084815260200190815260200160002054905080600660008773ffffffffffffffffffffffffffffffffffffffff1673ffffffffffffffffffffffffffffffffffffffff168152602001908152602001600020600084815260200190815260200160002081905550816007600083815260200190815260200160002081905550505b6007600084815260200190815260200160002060009055600660008573ffffffffffffffffffffffffffffffffffffffff1673ffffffffffffffffffffffffffffffffffffffff16815260200190815260200160002060008381526020019081526020016000206000905550505050565b60006001600880549050613ab6919061541a565b9050600060096000848152602001908152602001600020549050600060088381548110613ae657613ae5614bcd565b5b906000526020600020015490508060088381548110613b0857613b07614bcd565b5b906000526020600020018190555081600960008381526020019081526020016000208190555060096000858152602001908152602001600020600090556008805480613b5757613b5661544e565b5b6001900381819060005260206000200160009055905550505050565b6000613b7e8361153c565b905081600660008573ffffffffffffffffffffffffffffffffffffffff1673ffffffffffffffffffffffffffffffffffffffff168152602001908152602001600020600083815260200190815260200160002081905550806007600084815260200190815260200160002081905550505050565b6040518060e001604052806000815260200160608152602001600073ffffffffffffffffffffffffffffffffffffffff168152602001600081526020016060815260200160008152602001600081525090565b6000819050919050565b613c5881613c45565b82525050565b6000602082019050613c736000830184613c4f565b92915050565b6000604051905090565b600080fd5b600080fd5b60007fffffffff0000000000000000000000000000000000000000000000000000000082169050919050565b613cc281613c8d565b8114613ccd57600080fd5b50565b600081359050613cdf81613cb9565b92915050565b600060208284031215613cfb57613cfa613c83565b5b6000613d0984828501613cd0565b91505092915050565b60008115159050919050565b613d2781613d12565b82525050565b6000602082019050613d426000830184613d1e565b92915050565b600081519050919050565b600082825260208201905092915050565b60005b83811015613d82578082015181840152602081019050613d67565b60008484015250505050565b6000601f19601f8301169050919050565b6000613daa82613d48565b613db48185613d53565b9350613dc4818560208601613d64565b613dcd81613d8e565b840191505092915050565b60006020820190508181036000830152613df28184613d9f565b905092915050565b613e0381613c45565b8114613e0e57600080fd5b50565b600081359050613e2081613dfa565b92915050565b600060208284031215613e3c57613e3b613c83565b5b6000613e4a84828501613e11565b91505092915050565b600073ffffffffffffffffffffffffffffffffffffffff82169050919050565b6000613e7e82613e53565b9050919050565b613e8e81613e73565b82525050565b6000602082019050613ea96000830184613e85565b92915050565b613eb881613e73565b8114613ec357600080fd5b50565b600081359050613ed581613eaf565b92915050565b60008060408385031215613ef257613ef1613c83565b5b6000613f0085828601613ec6565b9250506020613f1185828601613e11565b9150509250929050565b600080600060608486031215613f3457613f33613c83565b5b6000613f4286828701613ec6565b9350506020613f5386828701613ec6565b9250506040613f6486828701613e11565b9150509250925092565b600080fd5b600080fd5b7f4e487b7100000000000000000000000000000000000000000000000000000000600052604160045260246000fd5b613fb082613d8e565b810181811067ffffffffffffffff82111715613fcf57613fce613f78565b5b80604052505050565b6000613fe2613c79565b9050613fee8282613fa7565b919050565b600067ffffffffffffffff82111561400e5761400d613f78565b5b61401782613d8e565b9050602081019050919050565b82818337600083830152505050565b600061404661404184613ff3565b613fd8565b90508281526020810184848401111561406257614061613f73565b5b61406d848285614024565b509392505050565b600082601f83011261408a57614089613f6e565b5b813561409a848260208601614033565b91505092915050565b600080604083850312156140ba576140b9613c83565b5b600083013567ffffffffffffffff8111156140d8576140d7613c88565b5b6140e485828601614075565b92505060206140f585828601613ec6565b9150509250929050565b61410881613c45565b82525050565b600082825260208201905092915050565b600061412a82613d48565b614134818561410e565b9350614144818560208601613d64565b61414d81613d8e565b840191505092915050565b61416181613e73565b82525050565b600060e08301600083015161417f60008601826140ff565b5060208301518482036020860152614197828261411f565b91505060408301516141ac6040860182614158565b5060608301516141bf60608601826140ff565b50608083015184820360808601526141d7828261411f565b91505060a08301516141ec60a08601826140ff565b5060c08301516141ff60c08601826140ff565b508091505092915050565b600060208201905081810360008301526142248184614167565b905092915050565b60006020828403121561424257614241613c83565b5b600061425084828501613ec6565b91505092915050565b60008060006060848603121561427257614271613c83565b5b600061428086828701613ec6565b935050602061429186828701613e11565b92505060406142a286828701613e11565b9150509250925092565b600060c0820190506142c16000830189613c4f565b6142ce6020830188613c4f565b6142db6040830187613e85565b6142e86060830186613e85565b6142f56080830185613c4f565b61430260a0830184613d1e565b979650505050505050565b61431681613d12565b811461432157600080fd5b50565b6000813590506143338161430d565b92915050565b600080604083850312156143505761434f613c83565b5b600061435e85828601613ec6565b925050602061436f85828601614324565b9150509250929050565b600067ffffffffffffffff82111561439457614393613f78565b5b61439d82613d8e565b9050602081019050919050565b60006143bd6143b884614379565b613fd8565b9050828152602081018484840111156143d9576143d8613f73565b5b6143e4848285614024565b509392505050565b600082601f83011261440157614400613f6e565b5b81356144118482602086016143aa565b91505092915050565b6000806000806080858703121561443457614433613c83565b5b600061444287828801613ec6565b945050602061445387828801613ec6565b935050604061446487828801613e11565b925050606085013567ffffffffffffffff81111561448557614484613c88565b5b614491878288016143ec565b91505092959194509250565b600080604083850312156144b4576144b3613c83565b5b60006144c285828601613e11565b92505060206144d385828601613e11565b9150509250929050565b6000602082840312156144f3576144f2613c83565b5b600082013567ffffffffffffffff81111561451157614510613c88565b5b61451d84828501614075565b91505092915050565b600060c08201905061453b6000830189613c4f565b6145486020830188613e85565b6145556040830187613c4f565b6145626060830186613c4f565b61456f6080830185613c4f565b61457c60a0830184613d1e565b979650505050505050565b600060e08201905061459c600083018a613c4f565b81810360208301526145ae8189613d9f565b90506145bd6040830188613e85565b6145ca6060830187613c4f565b81810360808301526145dc8186613d9f565b90506145eb60a0830185613c4f565b6145f860c0830184613c4f565b98975050505050505050565b6000806040838503121561461b5761461a613c83565b5b600061462985828601613ec6565b925050602061463a85828601613ec6565b9150509250929050565b7f4e487b7100000000000000000000000000000000000000000000000000000000600052602260045260246000fd5b6000600282049050600182168061468b57607f821691505b60208210810361469e5761469d614644565b5b50919050565b7f4552433732313a20617070726f76616c20746f2063757272656e74206f776e6560008201527f7200000000000000000000000000000000000000000000000000000000000000602082015250565b6000614700602183613d53565b915061470b826146a4565b604082019050919050565b6000602082019050818103600083015261472f816146f3565b9050919050565b7f4552433732313a20617070726f76652063616c6c6572206973206e6f7420746f60008201527f6b656e206f776e6572206f7220617070726f76656420666f7220616c6c000000602082015250565b6000614792603d83613d53565b915061479d82614736565b604082019050919050565b600060208201905081810360008301526147c181614785565b9050919050565b7f4552433732313a2063616c6c6572206973206e6f7420746f6b656e206f776e6560008201527f72206f7220617070726f76656400000000000000000000000000000000000000602082015250565b6000614824602d83613d53565b915061482f826147c8565b604082019050919050565b6000602082019050818103600083015261485381614817565b9050919050565b7f455243373231456e756d657261626c653a206f776e657220696e646578206f7560008201527f74206f6620626f756e6473000000000000000000000000000000000000000000602082015250565b60006148b6602b83613d53565b91506148c18261485a565b604082019050919050565b600060208201905081810360008301526148e5816148a9565b9050919050565b60008190508160005260206000209050919050565b60006020601f8301049050919050565b600082821b905092915050565b60006008830261494e7fffffffffffffffffffffffffffffffffffffffffffffffffffffffffffffffff82614911565b6149588683614911565b95508019841693508086168417925050509392505050565b6000819050919050565b600061499561499061498b84613c45565b614970565b613c45565b9050919050565b6000819050919050565b6149af8361497a565b6149c36149bb8261499c565b84845461491e565b825550505050565b600090565b6149d86149cb565b6149e38184846149a6565b505050565b5b81811015614a07576149fc6000826149d0565b6001810190506149e9565b5050565b601f821115614a4c57614a1d816148ec565b614a2684614901565b81016020851015614a35578190505b614a49614a4185614901565b8301826149e8565b50505b505050565b600082821c905092915050565b6000614a6f60001984600802614a51565b1980831691505092915050565b6000614a888383614a5e565b9150826002028217905092915050565b614aa182613d48565b67ffffffffffffffff811115614aba57614ab9613f78565b5b614ac48254614673565b614acf828285614a0b565b600060209050601f831160018114614b025760008415614af0578287015190505b614afa8582614a7c565b865550614b62565b601f198416614b10866148ec565b60005b82811015614b3857848901518255600182019150602085019450602081019050614b13565b86831015614b555784890151614b51601f891682614a5e565b8355505b6001600288020188555050505b505050505050565b7f4e487b7100000000000000000000000000000000000000000000000000000000600052601160045260246000fd5b6000614ba482613c45565b9150614baf83613c45565b9250828201905080821115614bc757614bc6614b6a565b5b92915050565b7f4e487b7100000000000000000000000000000000000000000000000000000000600052603260045260246000fd5b7f455243373231456e756d657261626c653a20676c6f62616c20696e646578206f60008201527f7574206f6620626f756e64730000000000000000000000000000000000000000602082015250565b6000614c58602c83613d53565b9150614c6382614bfc565b604082019050919050565b60006020820190508181036000830152614c8781614c4b565b9050919050565b7f4552433732313a20696e76616c696420746f6b656e2049440000000000000000600082015250565b6000614cc4601883613d53565b9150614ccf82614c8e565b602082019050919050565b60006020820190508181036000830152614cf381614cb7565b9050919050565b7f4552433732313a2061646472657373207a65726f206973206e6f74206120766160008201527f6c6964206f776e65720000000000000000000000000000000000000000000000602082015250565b6000614d56602983613d53565b9150614d6182614cfa565b604082019050919050565b60006020820190508181036000830152614d8581614d49565b9050919050565b600081905092915050565b6000614da282613d48565b614dac8185614d8c565b9350614dbc818560208601613d64565b80840191505092915050565b6000614dd48285614d97565b9150614de08284614d97565b91508190509392505050565b7f4f776e61626c653a206e6577206f776e657220697320746865207a65726f206160008201527f6464726573730000000000000000000000000000000000000000000000000000602082015250565b6000614e48602683613d53565b9150614e5382614dec565b604082019050919050565b60006020820190508181036000830152614e7781614e3b565b9050919050565b7f4552433732313a207472616e736665722066726f6d20696e636f72726563742060008201527f6f776e6572000000000000000000000000000000000000000000000000000000602082015250565b6000614eda602583613d53565b9150614ee582614e7e565b604082019050919050565b60006020820190508181036000830152614f0981614ecd565b9050919050565b7f4552433732313a207472616e7366657220746f20746865207a65726f2061646460008201527f7265737300000000000000000000000000000000000000000000000000000000602082015250565b6000614f6c602483613d53565b9150614f7782614f10565b604082019050919050565b60006020820190508181036000830152614f9b81614f5f565b9050919050565b7f4f776e61626c653a2063616c6c6572206973206e6f7420746865206f776e6572600082015250565b6000614fd8602083613d53565b9150614fe382614fa2565b602082019050919050565b6000602082019050818103600083015261500781614fcb565b9050919050565b7f4e487b7100000000000000000000000000000000000000000000000000000000600052601260045260246000fd5b7f45524337323155524953746f726167653a2055524920736574206f66206e6f6e60008201527f6578697374656e7420746f6b656e000000000000000000000000000000000000602082015250565b6000615099602e83613d53565b91506150a48261503d565b604082019050919050565b600060208201905081810360008301526150c88161508c565b9050919050565b7f4552433732313a20617070726f766520746f2063616c6c657200000000000000600082015250565b6000615105601983613d53565b9150615110826150cf565b602082019050919050565b60006020820190508181036000830152615134816150f8565b9050919050565b7f4552433732313a207472616e7366657220746f206e6f6e20455243373231526560008201527f63656976657220696d706c656d656e7465720000000000000000000000000000602082015250565b6000615197603283613d53565b91506151a28261513b565b604082019050919050565b600060208201905081810360008301526151c68161518a565b9050919050565b600081519050919050565b600082825260208201905092915050565b60006151f4826151cd565b6151fe81856151d8565b935061520e818560208601613d64565b61521781613d8e565b840191505092915050565b60006080820190506152376000830187613e85565b6152446020830186613e85565b6152516040830185613c4f565b818103606083015261526381846151e9565b905095945050505050565b60008151905061527d81613cb9565b92915050565b60006020828403121561529957615298613c83565b5b60006152a78482850161526e565b91505092915050565b7f455243373231456e756d657261626c653a20636f6e736563757469766520747260008201527f616e7366657273206e6f7420737570706f727465640000000000000000000000602082015250565b600061530c603583613d53565b9150615317826152b0565b604082019050919050565b6000602082019050818103600083015261533b816152ff565b9050919050565b7f4552433732313a206d696e7420746f20746865207a65726f2061646472657373600082015250565b6000615378602083613d53565b915061538382615342565b602082019050919050565b600060208201905081810360008301526153a78161536b565b9050919050565b7f4552433732313a20746f6b656e20616c7265616479206d696e74656400000000600082015250565b60006153e4601c83613d53565b91506153ef826153ae565b602082019050919050565b60006020820190508181036000830152615413816153d7565b9050919050565b600061542582613c45565b915061543083613c45565b925082820390508181111561544857615447614b6a565b5b92915050565b7f4e487b7100000000000000000000000000000000000000000000000000000000600052603160045260246000fdfea264697066735822122044823aa0a78728f61c3a18f6b40b465401bb3397f95c69805852544aae9e579864736f6c63430008110033",
  "immutableReferences": {},
  "source": "// SPDX-License-Identifier: GPL-3.0\npragma solidity 0.8.17;\n\nimport \"../node_modules/@openzeppelin/contracts/token/ERC721/ERC721.sol\";\nimport \"../node_modules/@openzeppelin/contracts/token/ERC721/extensions/ERC721Enumerable.sol\";\nimport \"../node_modules/@openzeppelin/contracts/access/Ownable.sol\";\nimport \"../node_modules/@openzeppelin/contracts/utils/Counters.sol\";\nimport \"../node_modules/@openzeppelin/contracts/utils/Strings.sol\";\nimport \"../node_modules/@openzeppelin/contracts/token/ERC721/extensions/ERC721URIStorage.sol\";\n\n// NFT contract\ncontract DAIM is ERC721, ERC721Enumerable, ERC721URIStorage, Ownable {\n    using Counters for Counters.Counter;\n    // using String for Strings;\n    // data variables and structs\n    uint public startUpCounter = 0;\n    uint public reqCounter = 0;\n    uint public buyCounter = 0;\n    address public admin;\n\n    Counters.Counter private _tokenIdCounter;\n    uint256 TOTAL_STARTUP_PARTS = 10000; // each part = 0.01%\n\n    mapping(uint => uint) public tokenPriceMap;\n\n    struct InvestRequest {\n        uint reqId;\n        address investor;\n        uint startupId;\n        uint parts;\n        uint amountPayed;\n        bool completed;\n    }\n    struct BuyRequest {\n        uint reqId;\n        uint tokenId;\n        address tokenOwner;\n        address buyee;\n        uint amountPayed;\n        bool completed;\n    }\n    struct Startup {\n        uint startupId;\n        string name;\n        address founder;\n        uint revenue;\n        //\n        string businessModel;\n        uint totalFunding;\n        uint profit;\n    }\n    InvestRequest[] public investRequests;\n    BuyRequest[] public buyRequests;\n    Startup[] public startups;\n    mapping(address => string) public investors;\n    // mapping(uint => uint) public tokensForSale;\n    uint[] public tokensForSale;\n    mapping(uint => bool) public tokensForSaleMap;\n\n    // modifiers\n    modifier onlyAdmin() {\n        require(msg.sender == admin);\n        _;\n    }\n\n    modifier isInvestor() {\n        require(bytes(investors[msg.sender]).length != 0);\n        _;\n    }\n\n    // code\n    constructor() ERC721(\"DAIM-NFT\", \"DAIM\") {\n        admin = msg.sender;\n        _tokenIdCounter.increment(); // Start mint at ID 1\n    }\n\n    function createStartup(string memory name, address startupOwner) public {\n        Startup storage newStartup = startups.push();\n        newStartup.name = name;\n        newStartup.startupId = startUpCounter;\n        newStartup.founder = startupOwner;\n        startUpCounter += 1;\n    }\n\n    function getStartupByID(\n        uint startupId\n    ) public view returns (Startup memory) {\n        require(startupId < startups.length);\n        return startups[startupId];\n    }\n\n    function registerAsInvestor(string memory name) public {\n        require(bytes(name).length != 0);\n        require(bytes(investors[msg.sender]).length == 0);\n        investors[msg.sender] = name;\n    }\n\n    function getStartupsCount() public view returns (uint256) {\n        return startups.length;\n    }\n\n    function getReqCount() public view returns (uint256) {\n        return investRequests.length;\n    }\n\n    function getBuyReqCount() public view returns (uint256) {\n        return buyRequests.length;\n    }\n\n    function getTokensForSaleCount() public view returns (uint256) {\n        return tokensForSale.length;\n    }\n\n    function createInvestRequest(\n        uint startupId,\n        uint parts\n    ) public payable isInvestor {\n        require(startupId < startUpCounter);\n        InvestRequest storage newReq = investRequests.push();\n        newReq.reqId = reqCounter;\n        newReq.investor = msg.sender;\n        newReq.startupId = startupId;\n        newReq.parts = parts;\n        newReq.amountPayed = msg.value;\n        newReq.completed = false;\n        reqCounter += 1;\n    }\n\n    function approveInvestRequest(uint reqId) public {\n        InvestRequest storage request = investRequests[reqId];\n        require(msg.sender == startups[request.startupId].founder);\n        require(request.completed != true);\n        uint tokenId = _tokenIdCounter.current();\n        tokenPriceMap[tokenId] = request.amountPayed;\n        mintTokenSafely(request.investor, request.startupId, request.parts);\n        payable(msg.sender).transfer(request.amountPayed);\n        request.completed = true;\n        //think about metadata\n    }\n\n    function rejectInvestRequest(uint reqId) public {\n        InvestRequest storage request = investRequests[reqId];\n        require(msg.sender == startups[request.startupId].founder);\n        require(request.completed != true);\n        payable(request.investor).transfer(request.amountPayed);\n        request.completed = true;\n    }\n\n    function putYourShareForSale(uint tokenId) public isInvestor {\n        require(ownerOf(tokenId) == msg.sender);\n        require(tokensForSaleMap[tokenId] != true);\n        tokensForSaleMap[tokenId] = true;\n        tokensForSale.push(tokenId);\n    }\n\n    function createBuyRequest(uint tokenId) public payable isInvestor {\n        require(tokensForSaleMap[tokenId] == true);\n        BuyRequest storage newReq = buyRequests.push();\n        newReq.reqId = buyCounter;\n        newReq.tokenId = tokenId;\n        newReq.tokenOwner = ownerOf(tokenId);\n        newReq.buyee = msg.sender;\n        newReq.amountPayed = msg.value;\n        newReq.completed = false;\n        buyCounter += 1;\n    }\n\n    function approveBuyRequest(uint reqId) public {\n        BuyRequest storage request = buyRequests[reqId];\n        require(request.tokenOwner == msg.sender);\n        require(request.completed != true);\n        payable(msg.sender).transfer(request.amountPayed);\n        request.completed = true;\n        tokensForSaleMap[request.tokenId] = false;\n        //think about transfer nft\n        tokenPriceMap[request.tokenId] = request.amountPayed;\n        safeTransferFrom(msg.sender, request.buyee, request.tokenId);\n    }\n\n    function rejectbuyRequest(uint reqId) public {\n        BuyRequest storage request = buyRequests[reqId];\n        require(request.tokenOwner == msg.sender);\n        require(request.completed != true);\n        payable(request.buyee).transfer(request.amountPayed);\n        request.completed = true;\n    }\n\n    function mintTokenSafely(address to, uint startupId, uint parts) public {\n        uint tokenId = _tokenIdCounter.current();\n        string memory separator = \"_\";\n        string memory temp = string.concat(\n            Strings.toString(startupId),\n            separator\n        );\n        string memory uri = string.concat(temp, Strings.toString(parts));\n        _safeMint(to, tokenId);\n        _setTokenURI(tokenId, uri);\n        _tokenIdCounter.increment();\n    }\n\n    // these functions are overrides required by Solidity for the imported files.\n\n    function _beforeTokenTransfer(\n        address from,\n        address to,\n        uint256 tokenId,\n        uint256 batchSize\n    ) internal override(ERC721, ERC721Enumerable) {\n        super._beforeTokenTransfer(from, to, tokenId, batchSize);\n    }\n\n    function supportsInterface(\n        bytes4 interfaceId\n    ) public view override(ERC721, ERC721Enumerable) returns (bool) {\n        return super.supportsInterface(interfaceId);\n    }\n\n    function _burn(\n        uint256 tokenId\n    ) internal override(ERC721, ERC721URIStorage) {\n        super._burn(tokenId);\n    }\n\n    function tokenURI(\n        uint256 tokenId\n    ) public view override(ERC721, ERC721URIStorage) returns (string memory) {\n        return super.tokenURI(tokenId);\n    }\n}\n",
  "sourcePath": "/Users/hrushi/Documents/hpoola_vathota/DAIM/daim-contract/contracts/DAIM.sol",
  "compiler": {
    "name": "solc",
    "version": "0.8.17+commit.8df45f5f.Emscripten.clang"
  },
  "schemaVersion": "3.4.13",
  "updatedAt": "2023-05-10T01:41:52.147Z",
  "networkType": "ethereum",
  "devdoc": {
    "kind": "dev",
    "methods": {
      "approve(address,uint256)": {
        "details": "See {IERC721-approve}."
      },
      "balanceOf(address)": {
        "details": "See {IERC721-balanceOf}."
      },
      "getApproved(uint256)": {
        "details": "See {IERC721-getApproved}."
      },
      "isApprovedForAll(address,address)": {
        "details": "See {IERC721-isApprovedForAll}."
      },
      "name()": {
        "details": "See {IERC721Metadata-name}."
      },
      "owner()": {
        "details": "Returns the address of the current owner."
      },
      "ownerOf(uint256)": {
        "details": "See {IERC721-ownerOf}."
      },
      "renounceOwnership()": {
        "details": "Leaves the contract without owner. It will not be possible to call `onlyOwner` functions anymore. Can only be called by the current owner. NOTE: Renouncing ownership will leave the contract without an owner, thereby removing any functionality that is only available to the owner."
      },
      "safeTransferFrom(address,address,uint256)": {
        "details": "See {IERC721-safeTransferFrom}."
      },
      "safeTransferFrom(address,address,uint256,bytes)": {
        "details": "See {IERC721-safeTransferFrom}."
      },
      "setApprovalForAll(address,bool)": {
        "details": "See {IERC721-setApprovalForAll}."
      },
      "symbol()": {
        "details": "See {IERC721Metadata-symbol}."
      },
      "tokenByIndex(uint256)": {
        "details": "See {IERC721Enumerable-tokenByIndex}."
      },
      "tokenOfOwnerByIndex(address,uint256)": {
        "details": "See {IERC721Enumerable-tokenOfOwnerByIndex}."
      },
      "totalSupply()": {
        "details": "See {IERC721Enumerable-totalSupply}."
      },
      "transferFrom(address,address,uint256)": {
        "details": "See {IERC721-transferFrom}."
      },
      "transferOwnership(address)": {
        "details": "Transfers ownership of the contract to a new account (`newOwner`). Can only be called by the current owner."
      }
    },
    "version": 1
  },
  "userdoc": {
    "kind": "user",
    "methods": {},
    "version": 1
  }
}